:020000040800F2
:10000000E0400020110200082B0A0008F702000857
:10001000290A000877090008890D0008000000007F
:10002000000000000000000000000000F50A0008C9
:1000300079090008000000007F020008AD0B0008ED
:100040002B0200082B0200082B0200082B020008DC
:100050002B0200082B0200082B0200082B020008CC
:100060002B0200082B0200082B0200082B020008BC
:100070002B0200082B0200082B0200082B020008AC
:100080002B0200082B0200082B0200082B0200089C
:100090002B0200082B0200082B0200082B0200088C
:1000A0002B0200082B0200082B0200082B0200087C
:1000B0002B0200082B0200082B0200082B0200086C
:1000C0002B0200082B0200082B0200082B0200085C
:1000D0002B0200082B0200082B0200082B0200084C
:1000E0002B0200082B0200082B02000800F002F887
:1000F00000F065F80AA090E8000C82448344AAF15D
:100100000107DA4501D100F05AF8AFF2090EBAE85A
:100110000F0013F0010F18BFFB1A43F0010318473B
:10012000304E0000504E00000A444FF0000C10F812
:10013000013B13F0070408BF10F8014B1D1108BF65
:1001400010F8015B641E05D010F8016B641E01F805
:10015000016BF9D113F0080F1EBF10F8014BAD1C55
:100160000C1B09D16D1E58BF01F801CBFAD505E073
:1001700014F8016B01F8016B6D1EF9D59142D6D3CD
:10018000704700000023002400250026103A28BFF5
:1001900078C1FBD8520728BF30C148BF0B607047F9
:1001A0001FB59DE8030000F0BBFA00F024F900F051
:1001B00085FA1FBD10B5002000F00FFB10BD00F048
:1001C00053FB1146FFF7ECFF00F0D0FB00F071FB92
:1001D00003B4FFF7EFFF03BC00F0A2FB0B49D1F81B
:1001E00000C04A685CF8043B1068184442F8040BED
:1001F0008C4528BFA1F1DC0C8A4228BFA1F1DC02AA
:10020000C1F800C04A6020F000407047742D002003
:100210000948804709480047FEE7FEE7FEE7FEE79A
:10022000FEE7FEE7FEE7FEE7FEE7FEE704480549D6
:10023000054A064B704700003D0C0008ED00000821
:10024000E02D0020E0400020E03C0020E03C0020C9
:10025000EFF3108072B6704780F310887047334A0E
:100260001368012B04D04FF001031360304A106073
:10027000304A116030484FF0805101607047EFF311
:10028000108272B62948016891B14FF000010160F7
:100290002748016829B1EFF3098121E9F00F0068CF
:1002A0000160244909680968B1E8F00F81F3098801
:1002B00082F310884EF0040E70471E4908601C49F6
:1002C0004FF00000086019494FF0010008601B481A
:1002D0004FF47F01D0F8002041EA02010160164886
:1002E0004FF08051016016480068006880F308886C
:1002F00061B662B670471EF0040F0CBFEFF30880C2
:10030000EFF3098020E9F00F40F804ED1EF0040F30
:100310000CBF80F3088880F3098800B502F092FFD3
:100320005DF804EB4EF0040E704700004C01002015
:10033000440100204801002004ED00E020ED00E031
:1003400008ED00E070B5A0FB0140B4F1805170F100
:10035000000024BF002070BD204600F007F8050013
:100360001CBF214600F033F9284670BD70B5064623
:1003700000F0B6F9056806F10B0020F00704B4425E
:100380009CBF002070BD2B466A68BAB11068A042BD
:1003900010D304F1080188423CBF5068586007D36D
:1003A0005168101941601168091B016058601460A0
:1003B000101D70BD13465268002AE7D12146284619
:1003C00000F09AF90028DED170BD00000B4910B58D
:1003D000A1F17C020A4CC2E93712372106E000EB9A
:1003E000104342F82130074B00FB03400B1EA1F1E4
:1003F0000101F4DC10BD0120E8E70000142D00200D
:10040000E119D666CD0D01002DE9F04107461546EC
:100410000E461020FFF7AAFF04000AD06760C4E967
:10042000026500F061F90168216004600020BDE808
:10043000F0810120FBE740EA0103024630B59B074B
:1004400010D14FF0013400E008C208C91D1B9D43C4
:1004500015EAC41FF8D013F0FF0102F8011B0DD0FC
:100460001B0AF8E711F8013B002B02F8013B05D00D
:1004700011F8013B002B02F8013BF3D130BD10B560
:10048000431C02E010F8011B71B18107FAD14FF053
:10049000013202C88C1A8C4314EAC211F9D0C01A76
:1004A0000A0603D0C01E10BDC01A10BD0A0401D038
:1004B000801E10BD0902FCD0401E10BD40EA0103A1
:1004C00070B59B072ED14FF00136042A2AD308C8F5
:1004D00010C99D1B9D43121F15EAC61517D0D8B22F
:1004E000E1B2401A50EA056110D198B2A1B2401AA7
:1004F00050EA05410AD123F07F4024F07F41401AA1
:1005000050EA052102D1180EA0EB146070BDA34281
:10051000DBD018BA21BA884201D9012070BD4FF052
:10052000FF3070BD0AB9002070BD10F8013B11F812
:10053000014B63B1A3420AD1521E08D010F8013B0F
:1005400011F8014B1BB1A34201D1521EEDD1181B72
:1005500070BD421E12F8013F002BFBD111F8013B88
:10056000002B02F8013BF9D1704710B5203AC0F0DA
:100570000B80B1E81850203AA0E81850B1E81850A4
:10058000A0E81850BFF4F5AF5FEA027C24BFB1E8E1
:100590001850A0E8185044BF18C918C0BDE8104052
:1005A0005FEA827C24BF51F8043B40F8043B08BF5B
:1005B0007047D20728BF31F8023B48BF11F8012B22
:1005C00028BF20F8023B48BF00F8012B70474FF0CE
:1005D00000020429C0F0128010F0030C00F01B8010
:1005E000CCF1040CBCF1020F18BF00F8012BA8BF1E
:1005F00020F8022BA1EB0C0100F00DB85FEAC17CE2
:1006000024BF00F8012B00F8012B48BF00F8012B94
:1006100070474FF0000200B51346944696462039C5
:1006200022BFA0E80C50A0E80C50B1F12001BFF4AB
:10063000F7AF090728BFA0E80C5048BF0CC05DF811
:1006400004EB890028BF40F8042B08BF704748BF5F
:1006500020F8022B11F0804F18BF00F8012B7047D3
:1006600010B5044610F0030F08BF11F0030F40F05F
:1006700015804FF0013E121FC0F20E8051F8043B6E
:10068000A3EB0E0C2CEA030C1CEACE1C08BF40F8AE
:10069000043BF0D0A1F1040102F10402521E08DB78
:1006A00011F8013B002B00F8013BF7D11146FFF791
:1006B0008EFF204610BD70477047704770B5064CDE
:1006C0007C44064D7D4403E0206820448047241D7F
:1006D000AC42F9D170BD0000AC480000AC4800004D
:1006E00000487047842D002000487047B42D00203A
:1006F000704770477047704738B504460A46002077
:100700006946AFF30080002808BF38BD0246009953
:10071000204600F087F8012038BD012000F09CB889
:10072000F8B5AFF30080054600200C46102000BF4E
:100730000646A819A0420DD9324669460020AFF3FB
:100740000080070008BF00F087F80098A04218BF9B
:100750000546C419FFF7C4FF05600746F01D20F0E9
:1007600007004619284600F00AF8B44208BFF8BD51
:10077000A21B31463868BDE8F84000F053B80021AC
:100780000160C0E9011070471020704770B5044641
:10079000051FFFF7A5FF0068002C14BF446870BD5B
:1007A000002C18BFAC423CBF20466468F8D30168F7
:1007B0000A18AA4218BF456003D12A6805461144A9
:1007C000016028684119A1421CBF6C6070BD61685E
:1007D000696021680844286070BD2DE9F041064633
:1007E000FFF782FF8046454613E016B1E068B0424D
:1007F0000ED120682860D4E90101D8F8007088473C
:100800002046FFF7C3FFD8F80000B842EBD100E064
:1008100025462C68002CE8D1BDE8F08100487047DF
:100820007C2D0020034640688C46002818BF884273
:100830003CBF03464068F8D318681844884207D084
:100840000CF1030020F00700001D411A521A014666
:10085000081D0A60FFF79ABF10B500F039F8BDE82F
:10086000104000F02FB870477546FFF7D7FFAE462F
:1008700005006946534620F00700854618B020B5AC
:10088000FFF7D4FCBDE820404FF000064FF0000712
:100890004FF000084FF0000B21F00701AC46ACE828
:1008A000C009ACE8C009ACE8C009ACE8C0098D4695
:1008B000704710B50446AFF300802046BDE81040F5
:1008C000FFF786BC002801D000F02AB8704700006E
:1008D00010B5012805D0002103A000F027F8012061
:1008E00010BD09A1F8E7000053494752544D454D4A
:1008F0003A204F7574206F662068656170206D65C1
:100900006D6F7279000000003A2048656170206DBB
:10091000656D6F727920636F7272757074656400B3
:1009200001491820ABBEFEE72600020070B505465F
:100930000C460A2000E06D1C00F011F835B1287853
:100940000028F8D102E0641C00F009F814B1207806
:100950000028F8D1BDE870400A20AFF3008008B548
:1009600069468DF800000320ABBE08BD10B503F04A
:10097000A1FB002010BDFEE770472DE9F0410022E9
:10098000CC7804F00F03E40601D58C7823430C786F
:100990004FF00F0714F0FF0F4FF0010C1CD005684B
:1009A0000CFA02F40E882640A64211D1960007FAEE
:1009B00006F825EA080503FA06F848EA0505CE78A0
:1009C000282E02D0482E02D002E0446100E00461EB
:1009D000521C082AE4D305600A88FF2A1ED94568FC
:1009E000002202F108060CFA06F40E882640A64200
:1009F00010D1960007FA06F825EA080503FA06F86A
:100A000048EA0505CE78282E00D14461CE78482EDC
:100A100000D10461521C082AE3D34560BDE8F0818F
:100A20004161704701617047FEE77047054A002940
:100A300003D091690143916170479169814391614C
:100A4000704700000010024010B5264A516801F0BE
:100A50000C01254B002927D0042927D0082927D0AD
:100A60000360516801F0F0010909204B5C5C0168EA
:100A7000E1404160546804F4E064240A1C5D21FAFA
:100A800004F48460546804F46054E40A1B5DD940A3
:100A9000C160526802F44042920B144B1B1F9A5CD7
:100AA000B1FBF2F1016110BD0360DAE70360D8E742
:100AB000516801F47011536803F48033022404EB8D
:100AC000914133B153689B0307D5094B59430160EA
:100AD000C7E7074B59430160C3E7034B5943016024
:100AE000BFE700000010024000127A006C000020F6
:100AF00000093D00704700F001B800000CB500226D
:100B0000019200922748016841F4803101604FF45E
:100B1000A063016801F4003100910199491C019121
:100B2000009911B901999942F3D10168890302D55D
:100B30000121009100E000920099012930D11A4969
:100B40000A6842F010020A600A6822F003020A6092
:100B50000A6842F002020A604168416041684160EF
:100B6000416841F480614160416821F47C11416039
:100B7000416841F4E8114160016841F08071016011
:100B800001688901FCD5416821F003014160416899
:100B900041F0020141604168C1F381010229FAD1AB
:100BA0000CBD0000001002400020024010B502F011
:100BB00065FC03F01DF8BDE8104002F06DBC0000BC
:100BC00010B51A4A506800F00C01194B1948002959
:100BD0000ED004290ED008290ED003605168154AA2
:100BE000C1F30311121D515C0268CA40026010BDBE
:100BF0000360F3E70360F1E7516801F47011536893
:100C000003F48033022404EB914133B153689B0316
:100C100007D5094B59430160E0E7074B5943016091
:100C2000DCE7034B59430160D8E7000000100240A5
:100C300000127A007C00002000093D0010B50F482A
:100C4000016841F00101016041680D4A11404160B5
:100C500001680C4A11400160016821F480210160A3
:100C6000416821F4FE0141604FF41F018160FFF7EC
:100C700042FF05494FF00060086010BD00100240BF
:100C80000000FFF8FFFFF6FE08ED00E08A05C9430B
:100C900001807047002904D0818941F4005181818D
:100CA0007047818921F400518181704702460020FC
:100CB00012880A4200D001207047000030B585B08C
:100CC00004460D46208A4CF6FF710840E98801432E
:100CD0002182A0894EF6F3110840A9882A89114380
:100CE0006A8902431143A181A08A4FF6FF4108405F
:100CF000A9890143A1826846FFF7A6FE1D488442E8
:100D000001D1039800E00298A189090408D500EBFD
:100D1000C00101EB001029684900B0FBF1F007E0C9
:100D200000EBC00101EB001029688900B0FBF1F075
:100D30006422B0FBF2F109010B096FF018056B4357
:100D400000EB8300A3891D044FF0320307D503EBAA
:100D5000C000B0FBF2F000F00700084306E003EB30
:100D60000010B0FBF2F000F00F000843208105B046
:100D700030BD0000003801408088C0F30800704793
:100D8000C1F3080181807047FEE70000401EB0F10A
:100D9000807F01D3012070474FF0E0214861044A71
:100DA000FF20107000208861072008610020704734
:100DB00023ED00E080B201F00EB80000024A526854
:100DC000002A00D09047FEE75001002094B00D4665
:100DD00014991646A024CDE901430122CDE903214F
:100DE00080210091014633462A4606A800F054FAB5
:100DF00006AC0021DDE91220904204DB40F2A7316D
:100E00001548FFF7DBFF139804EB8000806900F0C2
:100E10006FFB1399481C139004EB81000F49806904
:100E2000C860012180F8501000219F22CDE90021E7
:100E3000029101687F2300224C681146A047084DAB
:100E4000002405EB441000F0FBF8641C642CF8D37C
:100E50003220FFF7AFFFF3E7044E000850010020F7
:100E6000D81C0020704710B5001D00F0BDF8001F11
:100E70000021016010BD2DE9F84F0446DDE90A9A12
:100E80000D4690461F46206E002808D0466846B1A1
:100E90004B463A4641462846CDF800A0B047BDE84B
:100EA000F88F006898B194F8500080B1C3460CE008
:100EB0002E4606E0206E5246594603683046984753
:100EC000761CBE42F6DD0BF1010BCB45F0DD20694F
:100ED0000028E4D0E06804280DD00228DFD10AF40D
:100EE0007C40CAF3C40141EA50100AF4780140EA98
:100EF0001123424620E042460DE06168206908FB6C
:100F0000015100EB8101284602E041F804AB401C8E
:100F1000B842FADD521C4A45EFDDC0E7616820693E
:100F200008FB015100EB4101284602E021F8023B99
:100F3000401CB842FADD521C4A45EFDDAFE72DE90F
:100F4000F04104460E4617461D46206E002808D084
:100F5000036833B194F8500018B12A463946304638
:100F600098472069002813D0E168042912D002298B
:100F70000ED105F47C41C5F3C40242EA511105F4D7
:100F8000780241EA1221626807FB026220F812101F
:100F9000BDE8F081616807FB016140F82150F7E787
:100FA00010B500F007F80149016010BD844D00083C
:100FB0007047000010B50B490160002404714FF028
:100FC000C04181600C3000F00FF80C38C46104623D
:100FD00044628462C46244638463848704644464B6
:100FE000846410BDBC4D00080021C1608160416077
:100FF0000160704710B50446FFF7F0F8C11700EB29
:10100000516121F07F01401A206003F097FCA0603D
:10101000FFF7E4F8A02190FBF1F201FB1200606001
:1010200003F08CFCE0604FF07E50E0614FF08641B1
:10103000216102496161A06110BD000000002043F0
:101040002DE9F04F85B00446E569E668294630464B
:1010500003F034FB4FF07E59494603F0DDFC03F00A
:1010600051FCA76880462946384603F027FB4946CD
:1010700003F0D2FC03F046FC0546304603F042FC88
:101080000646384603F03EFC0027CDE90087DFF82E
:10109000E08101460297D8F80C002B460268D2F88E
:1010A00004C03246E047734D2069294603F0B4FC82
:1010B0002061064604902946606903F0ADFC0546B0
:1010C0006061D4F81CA06C49504603F059FB5146AE
:1010D00003F0F4FAE06103904E4501DB4D4505DA7B
:1010E00005B02046BDE8F04FFFF784BF2068DFF869
:1010F0008CB14FF0854A40281BDD6668502E18DD04
:101100004038C00103F01AFC049903F039FB514642
:1011100003F0D4FAA060503E06EB8600400103F0D5
:101120000DFC294603F02CFB594603F0C7FAE0609A
:101130005CE040281CDC6668502E19DDC0F14000E0
:10114000C00103F0FBFB049903F01AFB514603F0C6
:1011500058FCA060503E06EB8600400103F0EEFB19
:10116000294603F00DFB594603F0A8FAE0603DE084
:1011700040281CDD6668502E19DC4038C00103F0A1
:10118000DDFB049903F0FCFA514603F097FAA060E6
:10119000C6F1500000EB8000400103F0CFFB294670
:1011A00003F0EEFA594603F02CFCE0601EE0402804
:1011B0001CDC6668502E19DCC0F14000C00103F051
:1011C000BDFB049903F0DCFA514603F01AFCA06061
:1011D000C6F1500000EB8000400103F0AFFB294650
:1011E00003F0CEFA594603F00CFCE060DFF890A063
:1011F000A568554517D22846039903F05FFA49467A
:1012000003F00AFC8346B0F1864F0CDAE6685645D7
:1012100009D23046039903F051FA494603F0FCFB2A
:101220001849884205DB05B02046BDE8F04FFFF7BE
:10123000E1BE03F067FB0446584603F063FB8146BA
:10124000304603F05FFB0646284603F05BFB014691
:101250004FF0FF30CDE901070094D8F80C004B4661
:10126000026854683246A04705B0BDE8F08F000020
:10127000500100200000C0400000A0410000A0423A
:10128000000080800000204310B504462046FFF790
:10129000B1FE204610BD00002DE9F04F9BB0044682
:1012A000DDE9270ADDF89090269E0F4622606360F4
:1012B000A660E7604FF00008C4F81080C4F81480FE
:1012C0002063C4F83480022E06D0042E04D040F2ED
:1012D00087313248FFF772FD062804DD4FF4627152
:1012E0002E48FFF76BFD182104F11800FFF791F964
:1012F000002546E0EFB13346CDF80080494603A80B
:10130000259A00F059FA6020FFF730F88346BBF1C8
:10131000000F09D0602203A95846FFF726F904EB15
:101320008500C0F818B022E040F291311B48FFF769
:1013300045FD259A02A8494633464FF0000CCDF8EA
:1013400000C000F039FA16490160C0F860A06420BE
:10135000FFF70CF88346BBF1000F19D0642202A9F5
:101360005846FFF702F904EB8500C0F818B004EB0B
:1013700085008069C465E168416504F114018165F7
:101380006D1C206BA842B5DC1BB02046BDE8F08F79
:1013900040F299310148FFF711FD0000154E000899
:1013A0006C4D00082DE9F84F0646DDE90AA80C4609
:1013B0001746994609E0CDF80080306853464A4602
:1013C000056821463046A847641CBC42F3DDBDE8F1
:1013D000F88F00002DE9F0470446089E0F4690461E
:1013E00099466068B8427EDDA06840457BDD002FED
:1013F00079DBB8F1000F76DB94F85100B04204D2EB
:1014000040F2F3113948FFF7D9FC06EB860004EBF4
:10141000800505F118004246394600F001FA68B12E
:1014200094F85100B0420ED120684B464246C56840
:1014300039462046AC46BDE8F04760474FF4FC71A2
:101440002A48FFF7BBFC94F85200B04201D284F85E
:101450005260E06804281DD009F47C40C9F3C4013F
:1014600041EA501009F47801626840EA1120696984
:1014700008FB027221F8120094F85200B04210D119
:1014800020684B464246C56839462046AC46BDE812
:10149000F04760476168686908FB017140F8219076
:1014A000EAE74FF0000A02250DE005EB850004EBAA
:1014B000800018304246394600F0B2F910B14FF0C2
:1014C000010A02E06D1EB542EFD8BAF1000F0AD151
:1014D00020684B464246C56839462046AC46BDE8C2
:1014E000F0476047FFE7BDE8F0870000264E0008A0
:1014F00070B5044684F85110E06D002809D0006BE7
:10150000012806DDD4E901014843E168FEF71AFF2E
:101510002061002513E005EB850004EB800670696F
:1015200020B140F22E310B48FFF748FCD4E901010D
:101530004843E168FEF706FF706128B16D1C94F81E
:101540005100A842E7DC70BD4FF44C710148FFF731
:1015500035FC0000374E00082DE9F04FDDE909A801
:10156000C46D2768D4F80490C468042C33D0022CCE
:1015700033D108F47C44C8F3C40545EA541408F494
:10158000780544EA152855E00C4605692DB14668F2
:1015900002FB064605EB860600E0002602FB074C30
:1015A000456D05EB8C0C856DD5F800B00BF1010B8A
:1015B000C5F800B00CE00EB146F8048B90F850501E
:1015C0002DB1BC4203DA4A4501DA4CF8048B641CA5
:1015D0009C42F0DD521C5245D6DDBDE8F08F0D4631
:1015E00004692CB1466802FB065604EB460600E08F
:1015F000002602FB075C446D04EB4C0C846DD4F8B0
:1016000000B00BF1010BC4F800B01FFA88F40EE033
:101610000EB126F8024B90F850B0BBF1000F05D088
:10162000BD4203DA4A4501DA2CF8024B6D1C9D429B
:10163000EEDD521C5245D2DDCFE770B503F47C4598
:10164000C3F3C40646EA5515046903F4780645EA6F
:101650001625002C07D0C668042E1CD0466802FB55
:10166000061624F8165090F85040002C12D0C66D83
:1016700034688C420EDD766896420BDDC668042E17
:101680000FD002FB0411426D22F81150806D0168E9
:10169000491C016070BD466802FB061644F82630FE
:1016A000E1E702FB0411426D42F82130EEE72DE93B
:1016B000FC5F0446DDE90D750C98002902DA4FF055
:1016C000000A00E08A46002A01DA002600E01646F9
:1016D000D4F80490A9F10101994201DA894600E0A9
:1016E0009946D4F80880A8F10101814201DA8846C0
:1016F00000E0804694F85100A8420AD1CDE9008765
:1017000020684B463246856851462046A847BDE8CA
:10171000FC9F94F85200A8424BD10020002107F40E
:101720007C42C7F3C40343EA521207F4780342EA47
:10173000132C324605EB850304EB830322E0554668
:10174000D4F80CB0BBF1040F09D0D4F804B0586938
:1017500002FB0B5B00EB4B001FFA8CFB0FE0D4F895
:1017600004B0596902FB0B5B01EB8B01F4E7D4F881
:101770000CE0BEF1040F11D020F802BB6D1C4D45EA
:10178000F5DD521C4245DADDCDE9008720684B4685
:101790003246856851462046A847B8E780C1EDE744
:1017A000CDE9007533464A4651462046FFF7FAFD1B
:1017B000761C4645F4DDAAE77FB5089E164C04600A
:1017C00041608260C3600025056103231422134930
:1017D000143000F035F8A0F1140484F8505084F867
:1017E00052506565A565E5653C2104F11400FEF7DE
:1017F00010FFD4E901200095019502920390DDE9E4
:101800000201A561C4E90750616231462046FFF735
:101810006FFE04B0204670BDF44D0008670E00084E
:1018200003688B420ADC83688B4207DB4168914284
:1018300004DCC068904201DB012070470020704743
:101840002DE9F0411C4617460E00804607D005469C
:1018500002E02846B0473D442046641EF9D2404687
:10186000BDE8F081002807D00F4910F0FF0F05D028
:10187000C0B2085C401C70470020704710F47F4FD6
:1018800004D0C0F30720085C0930704710F47F0FC4
:1018900004D0C0F30740085C1130704701EB1060C2
:1018A0000078193070470000024B000810B5AF48AF
:1018B000FFF780FBAE490160AE4AAF49FEF7A4FDD9
:1018C000AE48FFF76DFBAB4AAD49FEF79DFDAB4857
:1018D0004C30FFF765FBA74AA949FEF795FDA748DD
:1018E0009830FFF75DFBA34AA549FEF78DFDA3489D
:1018F000E430FFF755FB9F4AA149FEF785FDA1485B
:10190000FFF74EFB9B4A9E49FEF77EFD9D484C30FB
:10191000FFF746FB974A9A49FEF776FD99489830BB
:10192000FFF73EFB934A9649FEF76EFD9548E4307B
:10193000FFF736FB8F4A9249FEF766FD9248FFF7A4
:101940002FFB8C4A8E49FEF75FFD8F484C30FFF726
:1019500027FB884A8A49FEF757FD8B489830FFF7E6
:101960001FFB844A8649FEF74FFD8748E430FFF7A6
:1019700017FB804A8249FEF747FD8448FFF710FBBA
:101980007C4A7F49FEF740FD80484C30FFF708FB5A
:10199000784A7B49FEF738FD7C489830FFF700FB1A
:1019A000744A7749FEF730FD7848E430FFF7F8FADB
:1019B000704A7349FEF728FD7548FFF7F1FA6D4A42
:1019C0006F49FEF721FD72484C30FFF7E9FA694A8A
:1019D0006B49FEF719FD6E489830FFF7E1FA654A4A
:1019E0006749FEF711FD6A48E430FFF7D9FA614A0A
:1019F0006349FEF709FD6748FFF7D2FA5D4A60497F
:101A0000FEF702FD63484C30FFF7CAFA594A5C49B9
:101A1000FEF7FAFC5F489830FFF7C2FA554A58497A
:101A2000FEF7F2FC5B48E430FFF7BAFA514A54493A
:101A3000FEF7EAFC5848FFF7B3FA4E4A5049FEF762
:101A4000E3FC55484C30FFF7ABFA4A4A4C49FEF7E5
:101A5000DBFC51489830FFF7A3FA464A4849FEF7A5
:101A6000D3FC4D48E430FFF79BFA424A4449FEF765
:101A7000CBFC4A48FFF794FA3E4A4149FEF7C4FCC2
:101A800046484C30FFF78CFA3A4A3D49FEF7BCFC19
:101A900042489830FFF784FA364A3949FEF7B4FCD9
:101AA0003E48E430FFF77CFA324A3549FEF7ACFC99
:101AB0003B48FFF775FA2F4A3149FEF7A5FC384835
:101AC0004C30FFF76DFA2B4A2D49FEF79DFC344848
:101AD0009830FFF765FA274A2949FEF795FC304808
:101AE000E430FFF75DFA234A2549FEF78DFC2D48C7
:101AF000FFF756FA1F4A2249FEF786FC29484C3068
:101B0000FFF74EFA1B4A1E49FEF77EFC2548983027
:101B1000FFF746FA174A1A49FEF776FC2148E430E7
:101B2000FFF73EFA134A1649FEF76EFC1E48FFF710
:101B300037FA104A1249FEF767FC1B484C30FFF792
:101B40002FFA0C4A0E49FEF75FFC17489830FFF752
:101B500027FA084A0A49FEF757FC13486423202253
:101B6000BDE810401149E430FFF76ABE242C002084
:101B7000304D000800000008650E00081410002019
:101B8000B10F00084411002074120020A41300209B
:101B9000D4140020041600203417002064180020FC
:101BA00094190020C41A0020F41B00208912000898
:101BB00003480168814201D001207047002070472E
:101BC000140100202DE9F04188B004460D46164668
:101BD000002100E0491C635C202B03D0092B01D0BD
:101BE000A942F7D34FF0FF38A9B1204601F0F8F829
:101BF000074697B120216846FEF70BFD6A46294645
:101C0000204601F051F950B16946B84730600020D4
:101C100008B0BDE8F0814046FAE74046F8E74046A4
:101C2000F6E700002DE9FC411F46DDE90A65DDE924
:101C30000831044604F11400406000601C34626006
:101C4000A760E36021610A462321184601F08CFC5D
:101C5000D4E903014218D4E90101121F0D4B01F030
:101C6000EFFB2060A67666760020E061A562E56263
:101C700060612076E06520661C3C00900190234660
:101C8000054A214604F14C0002F028F80020BDE886
:101C9000FC810000E1380008313B000810B5029CCF
:101CA00024F001044472C161026200218162436236
:101CB00000EBC102143252601260491C0129F7DBAB
:101CC00010BD10B5002200EBC2011431D1E9004370
:101CD0006360D1E90034236049600960521C012A25
:101CE000F1DB10BD10B51BA001F0E4FB1C4C21780A
:101CF0001CA001F0DFFB2078C00702D01FA001F07C
:101D0000D9FB2078800702D51FA001F0D3FB2078F3
:101D1000400702D51FA001F0CDFB2078000702D5B7
:101D200020A001F0C7FB2078C00602D520A001F05A
:101D3000C1FB2078000607D509480F300168BDE8CF
:101D400010401DA001F0B6BBBDE810401EA001F080
:101D5000B1BB0000627573206661756C743A0A004D
:101D600029ED00E05343425F434653525F424653DE
:101D7000523A3078253032582000000049425553FD
:101D800045525220000000005052454349534552ED
:101D900052200000494D505245434953455252206C
:101DA00000000000554E53544B4552522000000095
:101DB00053544B45525220005343422D3E4246411C
:101DC000523A253038580A000A00000010B500F0D9
:101DD00087FD002010BD01F02BBE000010B5124899
:101DE000416991F82110890704D410490020087036
:101DF000084610BD016929B180220C48FEF730FC6D
:101E00000A4810BD01F04EF820B109A10748FEF7BD
:101E100012FB03E008A10548FEF70DFB08A10348EB
:101E2000FEF797FB014810BD28010020780C002028
:101E30006D7368200000000066696E736820000002
:101E40003E00000001F0B6B90349496911F8212F9D
:101E500060F341020A70704728010020014A1060B7
:101E600051607047280100207FB515491548FFF7DC
:101E7000F5FF164E14487061A0F528750A2015214B
:101E80004FF4087205F18003CDE90032CDE902106C
:101E900000230F4A0FA1284601F0AEFD044600239F
:101EA0001A460EA1706901F057FC0120FFF7CCFF24
:101EB00014B9284601F008FE04B0002070BD0000EF
:101EC000504F0008B04E00089C0F00202801002051
:101ED000E51E0008747368656C6C000073687278A6
:101EE00000000000914D686910F8211F41F00101C8
:101EF0000170FFF773FF01F0DDFA0026FFF7A2FF84
:101F000004462000FAD41B2C07D06B6993F82000FC
:101F1000012807D002280ED017E06969012081F856
:101F20002000EBE75B2C02D083F820600DE002205C
:101F300083F82000E2E783F82060412CDED0422CB9
:101F4000DCD0442C38D0432C43D0002CD6D0FF2CEE
:101F5000D4D0092C4ED07F2C64D0082C62D00D2C0C
:101F60007ED00A2C7CD0B3F87200502801D3A3F89D
:101F70007260B3F87400B3F87210884271D20A1A12
:101F800003F1220101442333184401F0D3FA6869B4
:101F9000B0F8741022300C54686990F82110C90709
:101FA00006D0B0F874102230014461A001F082FA2A
:101FB0006869B0F8744097E0B3F8740000289DD0C9
:101FC0005CA001F077FA686930F8741F491E01803F
:101FD00094E7B3F87400B3F8721088428ED22233BB
:101FE000C15C55A001F066FA686930F8741F491C9D
:101FF000018083E7002403E04EA001F05BFA641C3B
:102000006869B0F87400A042F6DC6869223002F01A
:1020100067F868692230FEF732FA696921F8720FB1
:1020200048806BE7B3F874000028D1D033F8721FF2
:10203000491E89B21980401E80B25880723B81428D
:1020400025D90A1A03F1230101442233184401F06F
:1020500071FA6869B0F8721022300E54686901E0B4
:102060001EE047E0B0F874102230014433A001F0C4
:1020700021FA6869B0F8744003E02EA001F01AFA62
:10208000641C6869B0F87200A042A1DBF5E72DA0DE
:1020900001F010FA6869B0F8721022300E542DE782
:1020A00000F000FF01280DD1686990F82100C007F9
:1020B00002D025A001F0FEF96869B0F87210223054
:1020C00000F05CFEFFF78AFE01F0F4F96869502128
:1020D0002230FEF77CFA686920F8726F46800DE7BF
:1020E00014A001F0E7F9641C6869B0F87200A0421E
:1020F000F6DC0AE02233CC54686990F82100C0076E
:1021000003D021460CA001F0D5F9686930F8721FA0
:10211000491C89B201804288521C42807238502981
:10212000BDD320F8726F4680E8E600002801002049
:1021300025730000080000002563000008257320B7
:1021400020080000082008000A00000030B402F453
:102150007C43C2F3C40444EA531302F4780230BC53
:1021600043EA122289B280B202F058B81FB50520A6
:102170004FF40071CDE90110074A0092039000234B
:10218000064A07A1084801F037FC04B00648BDE83C
:10219000104001F099BC0000F80500203D45000802
:1021A0006775696C69746500F807002010B5124CFA
:1021B0002068800702D511A001F07CF9206840005A
:1021C00011D50D48C01E007808B1FFF78BFD0A48F5
:1021D000001F007808B100F015FD0748801E008838
:1021E00008B102F0FDF92068002804DABDE81040CB
:1021F00008A001F05FB910BD2CED00E06661696CCC
:10220000656420766563746F722066657463680A1E
:10221000000000006465627567206576656E740A6B
:102220000000000010B502A001F044F9002010BD2C
:1022300048656C6C6F2052542D546872656164213E
:102240000A00000070B50BA001F034F90E480468D4
:102250000E4D0AE002220EA12068FEF72FF918B1F8
:102260000CA0216801F026F9083428688442F1D3D3
:10227000002070BD2D2D46756E6374696F6E204C05
:102280006973743A0A000000280100202C01002024
:102290005F5F000025730A002DE9F04190B0002631
:1022A0002BA4082303AA04210BA800F08DF808270B
:1022B0002246394628A001F0FDF8384600F05CFEC1
:1022C0002EA001F0F7F80BA9304600F08FF8064673
:1022D000002420E003A850F824500C3DFDF7B8FF7F
:1022E000297A9DF8342021F08001914202D0FDF737
:1022F000B3FF0FE0FDF7B0FF05F11400804601F0D9
:1023000000F988B1E86900902B460822394623A0DD
:1023100001F0D0F8641C0F98A042DBDC002ED2D173
:1023200010B00020BDE8F081404601F0F1F8E96905
:10233000CDE900102B46082239461DA001F0BAF85D
:10234000404601F0E9FE0CA001F0B4F8E2E700001D
:102350006576656E74000000252D2A2E73202020DE
:102360002020207365742020202073757370656EA3
:1023700064207468726561640A00000020202D2DBD
:102380002D2D2D2D2D2D2D2D202D2D2D2D2D2D2D8A
:102390002D2D2D2D2D2D2D0A00000000252D2A2E4E
:1023A0002A73202030782530387820300A00000049
:1023B000252D2A2E2A7320203078253038782025A4
:1023C0003033643A000000002DE9F04104460D4628
:1023D00016461F46284601F0FDF8001D20602572B4
:1023E0006660E76000202061BDE8F0812DE9F041E2
:1023F0000D46002600212961E968002909D0297AC3
:1024000039B12F6840B10446FDF722FF014636B1CD
:1024100012E00020BDE8F0813C460126F4E72046AA
:102420002A7A10F8040C20F08000904204D008466C
:10243000FDF712FF0020EDE7002668682468BC4223
:1024400001D1002404E0761C10C0EA68B242F5D144
:102450000846FDF701FF2E612046DBE72DE9F0413C
:1024600090B000262FA4082303AA05210BA8FFF78C
:10247000ABFF0827224639462CA001F01BF838464E
:1024800000F07AFD32A001F015F80BA93046FFF7F5
:10249000ADFF0646002526E003A850F825400C3C79
:1024A000FDF7D6FE217A9DF8342021F0800191427B
:1024B00002D0FDF7D1FE15E0FDF7CEFE04F11400C9
:1024C000804601F01EF8B8B1404601F021F8218C99
:1024D000628CCDE90021029023460822394623A0D0
:1024E00000F0E8FF6D1C0F98A842D5DC002ECCD17F
:1024F00010B00020BDE8F081404601F009F8218CC1
:10250000628CCDE9002102902346082239461DA0A5
:1025100000F0D0FF404601F0FFFD19A000F0CAFF17
:10252000E0E700006D61696C626F7800252D2A2E4E
:102530007320656E7472792073697A652073757380
:1025400070656E64207468726561640A0000000042
:10255000202D2D2D2D20202D2D2D2D202D2D2D2DDF
:102560002D2D2D2D2D2D2D2D2D2D0A00252D2A2EF5
:102570002A732025303464202025303464202564DB
:102580000A000000252D2A2E2A73202530346420CD
:1025900020253034642025643A0000002DE9F04104
:1025A00090B000262DA4082303AA06210BA8FFF74C
:1025B0000BFF0827224639462BA000F07BFF384648
:1025C00000F0DAFC2FA000F075FF0BA93046FFF7F2
:1025D0000DFF0646002424E003A850F824500C3DCB
:1025E000FDF736FE297A9DF8342021F080019142D2
:1025F00002D0FDF731FE13E0FDF72EFE05F11400C9
:10260000804600F07EFFA8B1404600F081FFA98C13
:10261000CDE900102B460822394620A000F04AFFE1
:10262000641C0F98A042D7DC002ECED110B0002041
:10263000BDE8F081404600F06BFFA98CCDE90010A9
:102640002B46082239461AA000F034FF404601F01C
:1026500063FD1CA000F02EFFE2E700006D736771C0
:102660007565756500000000252D2A2E7320656EA6
:102670007472792073757370656E64207468726506
:1026800061640A00202D2D2D2D20202D2D2D2D2D86
:102690002D2D2D2D2D2D2D2D2D0A0000252D2A2EF1
:1026A0002A732025303464202025640A00000000AD
:1026B000252D2A2E2A732025303464202025643AC3
:1026C000000000000A000000F0B591B0002623A42D
:1026D000082304AA03210CA8FFF776FE0827224648
:1026E000394620A000F0E6FE384600F045FC26A062
:1026F00000F0E0FE0CA93046FFF778FE0646002504
:1027000023E004A850F825400C3CFDF7A1FD217AF8
:102710009DF8382021F08001914202D0FDF79CFD08
:1027200012E0FDF799FD04F1140000F0F1FEE17FE5
:10273000226A0823CDE90032CDE90210234608229F
:10274000394619A000F0B6FE6D1C1098A842D8DCDE
:10275000002ECFD111B00020F0BD00006D75746562
:1027600078000000252D2A2E732020206F776E65BB
:10277000722020686F6C642073757370656E6420BE
:102780007468726561640A00202D2D2D2D2D2D2D6C
:102790002D202D2D2D2D202D2D2D2D2D2D2D2D2D83
:1027A0002D2D2D2D2D0A0000252D2A2E2A732025B2
:1027B0002D382E2A7320253034642025640A000029
:1027C0002DE9F04190B000262DA4082303AA022190
:1027D0000BA8FFF7F9FD0827224639462BA000F089
:1027E00069FE384600F0C8FB2FA000F063FE0BA97D
:1027F0003046FFF7FBFD0646002424E003A850F80E
:1028000024500C3DFDF724FD297A9DF8342021F059
:102810008001914202D0FDF71FFD13E0FDF71CFD82
:1028200005F11400804600F06CFEA8B1404600F0AF
:102830006FFEA98BCDE900102B460822394620A057
:1028400000F038FE641C0F98A042D7DC002ECED1D9
:1028500010B00020BDE8F081404600F059FEA98B81
:10286000CDE900102B460822394619A000F022FEBF
:10287000404601F051FC0BA000F01CFEE2E7000016
:1028800073656D6170686F7265000000252D2A2EDA
:1028900073207620202073757370656E64207468D1
:1028A000726561640A000000202D2D2D202D2D2D34
:1028B0002D2D2D2D2D2D2D2D2D2D2D0A000000001F
:1028C000252D2A2E2A7320253033642025640A0002
:1028D000252D2A2E2A7320253033642025643A00C2
:1028E0002DE9F041B0B0002640A4082323AA01211D
:1028F0002BA8FFF769FD0827224639463D4800F01E
:10290000D9FD384600F038FB3BA000F0D3FD2BA9E1
:102910003046FFF76BFD064600255DE023A850F822
:1029200025400C3CFDF794FC8046207A9DF8B410BD
:1029300020F08000884203D04046FDF78DFC4AE03D
:102940008022214603A8FDF710FE4046FDF784FCD7
:1029500094F83500009023460822394636A000F04E
:10296000A9FD94F8340000F00F00012807D00228D8
:1029700009D060B104280ED0032810D012E031A095
:1029800000F098FD0EE032A000F094FD0AE033A0C4
:1029900000F090FD06E034A000F08CFD02E035A0D0
:1029A00000F088FDA06A014600E0401C0278232A5E
:1029B000FBD0E26A401A101A64235843B0FBF2F3CA
:1029C000D4F830C0A06CCDE9000CE069081A811879
:1029D0002BA000F06FFD6D1C2F98A8429EDC002EEE
:1029E00095D130B00020BDE8F081000074687265B8
:1029F00061640000484E0008202D2D2D20202D2D33
:102A00002D2D2D2D2D202D2D2D2D2D2D2D2D2D2D03
:102A1000202D2D2D2D2D2D2D2D2D2D20202D2D2D0D
:102A20002D2D2D20202D2D2D2D2D2D2D2D2D2D20FD
:102A30002D2D2D0A00000000252D2A2E2A73202579
:102A4000336420002072656164792020000000005A
:102A50002073757370656E640000000020696E69F4
:102A6000742020200000000020636C6F736520201C
:102A7000000000002072756E6E696E670000000035
:102A8000203078253038782030782530387820206C
:102A9000202025303264252520202030782530382C
:102AA0007820253033640A00F0B58FB0002627A4C3
:102AB000082302AA0A210AA8FFF786FC0827224653
:102AC000394624A000F0F6FC384600F055FA2BA059
:102AD00000F0F0FC0AA93046FFF788FC0646002407
:102AE00026E002A850F824500C3DFDF7B1FB297AEE
:102AF0009DF8302021F08001914202D0FDF7ACFB1F
:102B000015E0FDF7A9FBD5E90901CDE900012B4648
:102B10000822394622A000F0CDFC687AC00703D015
:102B200025A000F0C7FC02E026A000F0C3FC641C56
:102B30000E98A042D5DC002ECCD101F053F801460E
:102B400024A000F0B7FC0FB00020F0BD74696D65E3
:102B500072000000252D2A2E732020706572696F87
:102B600064696320202074696D656F75742020206E
:102B700020202020666C61670A000000202D2D2D8A
:102B80002D2D2D2D2D2D2D202D2D2D2D2D2D2D2D82
:102B90002D2D202D2D2D2D2D2D2D2D2D2D2D0A00C2
:102BA000252D2A2E2A732030782530387820307849
:102BB000253038782000000061637469766174659F
:102BC000640A000064656163746976617465640A0F
:102BD0000000000063757272656E74207469636B27
:102BE0003A3078253038780A00000000642000F080
:102BF0001FFFFBE710B500F093FABDE81040FFF7A8
:102C0000F5BF000010B518A000F054FC1B4C217853
:102C10001BA000F04FFC2078C00702D01EA000F0DF
:102C200049FC2078800702D51EA000F043FC2078E4
:102C3000000702D51EA000F03DFC2078C00602D59A
:102C40001EA000F037FC2078000607D50B480C309A
:102C50000168BDE810401CA000F02CBCBDE810408D
:102C60001DA000F027BC00006D656D206D616E61D8
:102C70006765206661756C743A0A000028ED00E013
:102C80005343425F434653525F4D4653523A307866
:102C900025303258200000004941434356494F4CEB
:102CA000200000004441434356494F4C200000009F
:102CB0004D554E53544B4552522000004D53544BEA
:102CC00045525220000000005343422D3E4D4D41DD
:102CD000523A253038580A000A0000002DE9F04722
:102CE00081460025002699F80000002804D01E48DF
:102CF0000468DFF8788028E0BDE8F0470021084646
:102D000000F09AB806221AA12068FDF7D7FBD8B9BF
:102D10002768BF1D4846FDF7B2FB024639464846C4
:102D2000FDF7CCFB80B925B93E463046FDF7A7FB41
:102D300005463946304601F0F4FBA84200DA054664
:102D400039460DA000F0B6FB0834D8F800008442E4
:102D5000D8D3002E06D02A4631464846BDE8F04773
:102D600000F06EBDBDE8F087280100202C01002096
:102D70005F5F636D645F000025730A0038B5054628
:102D800001E06D1C491E28782028FAD00928F8D0C7
:102D900031B16A462846FEF715FF18B12C4604E00B
:102DA000002038BD009838BD641C2078202801D050
:102DB0000028F9D100202070294603A000F07AFBFA
:102DC0004FF0FF3038BD000025733A20636F6D6D02
:102DD000616E64206E6F7420666F756E642E0A00DB
:102DE0002DE9F0478146884600260F48046808F11F
:102DF00006050E4F10E006220DA12068FDF75EFBD0
:102E000048B920684246801D4946FDF757FB10B976
:102E10002068405D30B1083438688442EBD33046D6
:102E2000BDE8F0876668FAE7280100202C01002041
:102E30005F5F636D645F000070B50DA000F03AFB4A
:102E400012480468124D0BE0062212A12068FDF71B
:102E500035FB20B9216811A0891D00F02BFB083437
:102E600028688442F0D30EA000F024FB002070BD3F
:102E700052542D546872656164207368656C6C20CF
:102E8000636F6D6D616E64733A0A00002801002063
:102E90002C0100205F5F636D645F000025732000DC
:102EA0000A0000000120704770B516460023002478
:102EB00000254AE000F8015B5B1C0278202A01D063
:102EC000092A01D18B42F5D3082C10D321A000F0A0
:102ED000F1FA002505E056F8251026A000F0EAFAE0
:102EE0006D1CA542F7D322A000F0E4FA2FE08B423C
:102EF0002DD20278222A03D046F82400641C1BE05D
:102F0000401C5B1C46F82400641C08E05C2A04D1C9
:102F10004278222A01D1401C5B1C401C5B1C0278B9
:102F2000222A01D08B42F1D38B4210D200F8015BF0
:102F30005B1C0AE0401C5B1C0278202A03D0092A93
:102F400001D08B42F6D38B4201D28B42B5D32046BF
:102F500070BD0000546F6F206D616E7920617267E3
:102F6000732021205765206F6E6C79205573653A68
:102F70000A0000002573200010B5044602E003A0FB
:102F800000F098FA641E601CF9D110BD2D000000FD
:102F90002DE9F04F85B00EAC70CCA94600947406B4
:102FA00002D5DFF81CB103E0DFF814B1ABF1110B6F
:102FB000F40601D526F00106F40702D04FF0300ADE
:102FC00001E04FF0200A0027B4070BD5002A02DAEF
:102FD0002D27524206E0740701D52B2702E0340763
:102FE00000D5202700240DF1040E7AB930220124E7
:102FF0008DF804200CE00A2B15D002F00F081209FE
:10300000A4461BF80880641C0EF80C80002AF2D13C
:10301000AC4200DD2546009A521B16F0110F4FF00E
:10302000200309D016E04FF00A0CB2FBFCF80CFBB1
:103030001828B2FBFCF2E3E73FB1002A05DD521E7F
:1030400003E0884200D20370401CB2F1000CA2F1F0
:103050000102F6DC27B1884200D20770521E401CE4
:10306000F60605D508E0884201D280F800A0401C91
:10307000161EA2F10102F6DC302703E0884200D2DE
:103080000770401C2E466D1EA642F7DC05E0884204
:1030900002D21EF804500570401C251EA4F1010444
:1030A00007DDB9F1000FF2D103E0884200D20370CE
:1030B000401C141EA2F10102F7DC05B0BDE8F08F40
:1030C000134C00081FB50B4C14200A214FF48072DA
:1030D000A4F58073CDE90032CDE902100023064A41
:1030E00006A1204600F088FC04B02046BDE8104050
:1030F00000F0EABC78090020F52B00086D61696ECC
:103100000000000070B5044C044D02E020688047C8
:10311000241DAC42FAD370BD904E0008984E0008B2
:1031200070B5044C044D02E020688047241DAC4279
:10313000FAD370BD984E0008AC4E000810B5FDF7EC
:1031400087F8044A5188491C5180BDE81040FDF7BA
:1031500083B800000801002010B5FDF779F80B4C8A
:103160006188491E09B2618000290ADC0021618062
:10317000FDF772F86068002807D0BDE8104000F045
:103180006BBABDE81040FDF767B810BD080100201C
:1031900010B5FDF715FD06484FF47A710068B0FBD5
:1031A000F1F0FDF7F3FDBDE81040FFF7ABBF000005
:1031B0007C00002070B54FF0FF340E4D20212846D2
:1031C000FDF774FD40B12846FDF7D6FD04462021E9
:1031D0002846FDF75BFD0BE008212846FDF766FD5C
:1031E00018B108212846FDF751FD0A2000F020FC07
:1031F000E0B270BD0038014070B50446FFF79EFF95
:103200000F4D16E00A2809D10D212846FDF7B8FD1B
:1032100040212846FDF74AFD0028F9D014F8011B8B
:103220002846FDF7ADFD40212846FDF73FFD00286B
:10323000F9D020780028E5D1BDE87040FFF78CBFB9
:103240000038014070B505462C1D2D480168002945
:1032500003D028468847002851D02AA0E16B00F00F
:1032600029F92CA0216A00F025F92EA0616A00F04E
:1032700021F930A0A16A00F01DF932A0E16A00F046
:1032800019F934A0216800F015F936A0616800F042
:1032900011F938A0A16800F00DF93AA0E16800F03A
:1032A00009F93CA0216900F005F93EA0616900F030
:1032B00001F940A0A16900F0FDF842A0E16900F029
:1032C000F9F844A0216B00F0F5F846A0616B00F01E
:1032D000F1F848A0A16B00F0EDF82878400708D578
:1032E00000F0CCFB014647A000F0E4F8FFF7F8FA45
:1032F00002E04CA000F0DEF8FEF758FFFEE770BDDC
:10330000400100207073723A203078253038780AF6
:10331000000000007230303A203078253038780ACA
:10332000000000007230313A203078253038780AB9
:10333000000000007230323A203078253038780AA8
:10334000000000007230333A203078253038780A97
:10335000000000007230343A203078253038780A86
:10336000000000007230353A203078253038780A75
:10337000000000007230363A203078253038780A64
:10338000000000007230373A203078253038780A53
:10339000000000007230383A203078253038780A42
:1033A000000000007230393A203078253038780A31
:1033B000000000007231303A203078253038780A29
:1033C000000000007231313A203078253038780A18
:1033D000000000007231323A203078253038780A07
:1033E00000000000206C723A203078253038780ACE
:1033F000000000002070633A203078253038780AC9
:103400000000000068617264206661756C74206F52
:103410006E207468726561643A2025730D0A0D0A86
:103420000000000068617264206661756C74206F32
:103430006E2068616E646C65720D0A0D0A000000F2
:1034400070B50646121D22F00700A0F1400528467F
:103450000022094C40F82240521C102AFAD3016283
:10346000002141628162C1620163436386634FF060
:103470008071C163284670BDEFBEADDE10B5FCF7AC
:10348000E7FE044A1178491C1170BDE81040FCF7B2
:10349000E3BE00009400002010B5FCF7D9FE044AFA
:1034A0001178491E1170BDE81040FCF7D5BE000030
:1034B000940000200FB408B503AB00937F210548AA
:1034C000029A00F0A3FC0348FFF796FE01B05DF8F6
:1034D00014FB0000F80A00200268516002680A60CC
:1034E0000160486070470268516002680A600160CC
:1034F000486070470168814201D101207047002077
:1035000070470168814201D1012070470020704757
:1035100002460020114600E0401C09689142FBD1A0
:103520007047D0E900215160D0E90012116040607D
:103530000060704710B503461846814210D28C18BF
:103540009C420DD9991803E014F8013D01F8013DA2
:10355000521E531CF8D110BD11F8014B03F8014B5A
:10356000521E541CF8D110BD10B50346CCB2042A2B
:1035700015D3810713D1014644EA042343EA0343E8
:1035800005E00B604B608B60CB601031103A102A65
:10359000F7D201E008C1121F042AFBD20B46E1B2A8
:1035A00001E003F8011B521E541CFAD110BD10B5E6
:1035B000044600202072FCF74BFE0C34D4E90021B5
:1035C0005160D4E90012116064602460BDE81040CD
:1035D000FCF742BE0021074A02EB01131B7883422D
:1035E00002D102EB01107047491C0729F4DB0020CF
:1035F00070470000980000202DE9F04105460E4676
:1036000017463046FFF7E6FF0446FFF797FD606870
:10361000211D00E000688842FCD1FFF79DFD46F0C7
:103620008000287208223946284600F009F9FCF784
:103630000FFE241D0C3521684D602168296025602E
:103640006C60BDE8F041FCF707BE007A000601D5CA
:10365000012070470020704770B5FCF7F9FD054662
:10366000124C608898B9A068FEF7FCF8421E10481A
:1036700050F8321014396068814208D022706160BD
:103680000C4A127842B11C311C30FCF7E8FD284688
:10369000BDE87040FCF7E0BD1C311C30FCF7DFFDDD
:1036A0002846BDE87040FCF7D7BD000008010020A7
:1036B000780B00209400002010B50446FCF7C8FDEC
:1036C000024614F8340F20F00F00401C2070607880
:1036D0000A49343C01EBC00104F114004B68186046
:1036E0004B684360486001600548A16B83681943DB
:1036F0008160BDE810401046FCF7AEBD780B00209D
:103700000801002070B50546FCF7A2FD014605F151
:103710001404D4E900205060D4E900021060646011
:10372000246095F835000A4A02EBC0000268824224
:1037300001D1012000E0002020B10648AB6B826877
:103740009A438260BDE870400846FCF785BD0000E2
:10375000780B0020080100202DE9F04105461646AF
:103760001F460A4602212846FFF746FF2C4614341E
:1037700064602460AE836F720020BDE8F0810000B9
:1037800008B509A0FFF796FE0AA0FFF793FE12A066
:10379000032300900122194612A0FFF78BFEBDE81B
:1037A000084018A0FFF786BE0A205C207C202F0A64
:1037B000000000002D205254202D202020202054D5
:1037C0006872656164204F7065726174696E67200C
:1037D00053797374656D0A0041707220203920326C
:1037E00030323000202F207C205C2020202020251B
:1037F000642E25642E2564206275696C642025730F
:103800000A0000002032303036202D20323031398D
:1038100020436F70797269676874206279207274CE
:103820002D746872656164207465616D0A00000022
:10383000014600E0491C0A78002AFBD1081A7047AB
:1038400010B5002A07D0034611F8014B03F8014BCD
:1038500014B1521EF8D110BD002101E003F8011B84
:10386000521EFBD110BD000010B50A4B00245C8035
:103870000020094A02EBC00149600960401C202871
:10388000F8DB1F2018705C609C6002480C304060C0
:10389000006010BD08010020780B002010B5074C17
:1038A000A068FDF7DFFF401E054951F830001438CD
:1038B0006060BDE810401C30FCF7FFBC0801002030
:1038C000780B00200020044A02EBC0014960096027
:1038D000401C0028F8D070472001002070470000ED
:1038E00070B513480468FCF7B3FC05462046FFF7A3
:1038F00009FF042084F8340004F14C0000F0DEF9E4
:103900002046FFF7A2FE012801D1A06F58B104F1B3
:1039100014010848FFF7E0FD2846FCF79DFCBDE8D0
:103920007040FFF799BE2046FFF741FEF4E7000024
:103930000C0100201401002000F002F8FCE7000058
:1039400070B522E0FCF784FC0546FEF731F958B368
:10395000184800680146A0F11404D1E90020506025
:10396000D1E90002106049600960FFF7E7FBA16F31
:1039700009B1204688472046FFF767FE012809D095
:10398000FFF7EAFB2846FCF767FCFEF711F9002871
:10399000D8D170BD2046FFF70AFEFFF7DDFB2846B1
:1039A000BDE87040FCF758BC2846BDE87040FCF705
:1039B00053BC0000140100201FB520201F218022CD
:1039C000094BCDE90210CDE9003207480023074A30
:1039D00007A1803800F010F804B00348BDE810409B
:1039E000803800F071B80000780A002039390008EA
:1039F0007469646C650000002DE9FF5F8146DDE9B4
:103A00000E76DDE91054884692469B4642460121D7
:103A10004846FFF7F1FDCDE90076CDE902545B465B
:103A2000524641464846FEF7FDF804B0BDE8F09F17
:103A300010B500F0BDF8BDE8104000F025B870B535
:103A4000044694F8340000F00F00022802D04FF032
:103A5000FF3070BDFCF7FCFB054604F11400FFF7D6
:103A600060FD04F14C0000F0B9F92846FCF7F4FBC6
:103A70002046FFF721FE002070BD000001480068CD
:103A8000704700000C010020F1B5FCF7E1FB054692
:103A90000C480468204600F02AF804F14C006A46FD
:103AA0000021064600F0F0F8304600F02DF92846D7
:103AB000FCF7D2FBFFF7D0FD206B801C00D1206308
:103AC0000020F8BD0C01002010B534308178417021
:103AD00001228A404260022100F83419FFF7AFFF4B
:103AE000FFF7CCFF08B1FFF7B7FD002010BD70B5A0
:103AF000044694F8340000F00F00012802D04FF083
:103B0000FF3070BDFCF7A4FB054694F8340020F0AC
:103B10000F00801C84F834002046FFF7F3FD04F109
:103B20004C0000F05BF92846FCF796FB002070BDC6
:103B300010B504466FF00100206304F11400FFF794
:103B4000F0FC2046FFF7B8FDBDE81040FFF784BD4C
:103B500070B5FCF77DFB06461348046894F8340002
:103B600000F00F0001281AD1D4E90501884216D0CF
:103B700004F114000546FFF7D4FC94F835000B4916
:103B800001EBC00041680D604168696045602860D4
:103B90003046FCF761FBFFF75FFD002070BD30464B
:103BA000FCF75AFB002070BD0C010020780B0020B0
:103BB000002802DA4FF0FF3070474FF47A7190FB23
:103BC000F1F24A4390FBF1F301FB130000EB4003D9
:103BD000C3EBC0104B1E03EBC00090FBF1F0104490
:103BE0007047000001480068704700009000002006
:103BF00010B509490868401C0860FFF73FFF816C59
:103C0000491E816419B9416C8164FFF7A1FFBDE8C9
:103C1000104000F003B800009000002070B5FFF7DE
:103C2000E1FF0646FCF714FB054620E01548046852
:103C3000143C6FF00041A06A301A88421CD2204622
:103C4000FEF73FF8D4E907108847FFF7CBFF064699
:103C5000607A810708D5C10706D020F001006072A4
:103C6000204600F051F802E020F0010060720548A3
:103C7000FFF740FC0028D9D02846BDE87040FCF78B
:103C8000EBBA000020010020002909D0012904D04E
:103C9000022908D003290FD10AE0406A10600BE026
:103CA0001168416208E0417A21F00201417203E0AB
:103CB000417A41F0020141720020704770B505461B
:103CC000FCF7C6FA04462846FDF7FBFF2046FCF742
:103CD000C3FA2846FFF76BFC002070BD2DE9F843BE
:103CE0000746DDE9088415461E460A460A2138467D
:103CF000FFF782FC43463246294638460094FDF7DA
:103D0000CDFFBDE8F88300002DE9F8430446FCF739
:103D10009FFA05462046FDF7D4FF607A20F00100A7
:103D200060722846FCF798FAFFF75CFF616A084466
:103D3000A062FCF78DFA0746DFF89CC0CDF800C002
:103D400000226E460CEBC20045680DE00068A0EB57
:103D5000C201A36A4969994204D0C91A6FF00043AD
:103D6000994205D346F8220056F82200A842EDD128
:103D70002AB156F822100831531C46F82310521C61
:103D8000002ADFD01448001FD0F8008008F1010895
:103D9000C0F8008004F114010098FFF7A4FB02258D
:103DA0000EE05FEA88700DD1C5F1010004EBC0019F
:103DB000143156F82000FFF796FB4FEA98086D1C67
:103DC000012DEED9607A40F0010060723846FCF7B0
:103DD00043FA0020BDE8F8832001002070B50446B6
:103DE000607AC0070ED0FCF733FA05462046FDF78F
:103DF00068FF2846FCF730FA607A20F00100607214
:103E0000002070BD4FF0FF3070BD00002DE9FF4F66
:103E100083B081468B4609EB0B074C46A74203D281
:103E20004FF0FF37C9F1FF3B4FF0200A12E1252880
:103E300004D0BC4200D22070641C08E10025059922
:103E4000491C059108782D2814D02B2815D020283E
:103E500016D0232817D0302818D04FF0FF38464608
:103E6000059A1278303A0A2A13D205A800F06CF9A4
:103E700006461AE045F01005E1E745F00405DEE7E7
:103E800045F00805DBE745F02005D8E745F00105DA
:103E9000D5E72A2809D1491C0591069840C8069003
:103EA000002E02DA764245F01005059801782E2999
:103EB00018D1401C05900178A1F130020A2A04D2E1
:103EC00005A800F041F9804607E02A2905D1401CE9
:103ED0000590069850F8048B0690B8F1000F01DAAF
:103EE0004FF000080021059A1078682801D06C284E
:103EF00002D10146521C05920A23059800786F28CA
:103F000071D00CDC632820D004DC25286CD0582824
:103F10000DD187E0642801D0692808D186E0702897
:103F200063D073282FD0752871D078287CD0BC42FC
:103F300001D225202070641C05990878002868D0DB
:103F4000BC4200D22070641C81E0E80605D507E081
:103F5000BC4201D284F800A0641C761E002EF7DC5F
:103F6000069810F8041B0690C8B2BC4200D220701C
:103F7000641C04E0BC4201D284F800A0641C761EDC
:103F8000002EF7DC63E0069808C8069003B943A347
:103F90001846FFF74DFCB8F1000F02DD404500DD8B
:103FA0004046E90605D508E0BC4201D284F800A0ED
:103FB000641C3146761E8142F6DC002106E0BC42DC
:103FC00001D21A782270641C5B1C491C8142F6DB0A
:103FD00004E0BC4201D284F800A0641C3146761E85
:103FE0008142F6DC33E01BE014E0701C02D10826AD
:103FF00045F00105CDE9006806980295102304C834
:10400000069039462046FEF7C3FF04461FE00FE046
:104010000AE02BE0BC4201D225202070641C16E08F
:10402000082305E045F04005102301E045F00205B6
:104030006C291ED0682920D0069804C80690CDE9C6
:104040000068394620460295FEF7A2FF044605980F
:10405000401C05900598007800287FF4E8AEBBF17D
:10406000000F15D0BC4211D2207011E0491E0591FD
:10407000EDE7069804C80690E1E7069830F8041BBF
:1040800006908AB2A807DAD512B2D8E707F8010C71
:1040900007B0A4EB0900BDE8F08F0000284E554C96
:1040A0004C29000000207047002070470020704716
:1040B0000020704710B5FCF7CBF8FFF769F8FFF761
:1040C0005FFBFFF7FFFBFFF7CFFBFEF7FBFFFFF701
:1040D00005FCFFF771FCFFF7E1FB002010BD0000BD
:1040E00010B5044609A0FFF7E5F9FEF7DBFE01284D
:1040F00002D12046FEF7F2FDFDF770FE2246014692
:10410000BDE8104002A0FFF7D5B900000A0000008A
:10411000257325730000000070B505462C680BE080
:10412000A4F1140106A0FFF7C5F92068A84202D047
:1041300004A0FFF7BFF92468AC42F1D170BD0000C4
:10414000257300002F00000010B5024600206FF01C
:104150002F0407E04B1C1360097800EB800004EB90
:104160004000084411680B78303B0A2BF2D310BD95
:104170002DE9F8430025104E10274FF0030806EBF9
:10418000051401216068FCF751FCA089ADF800001E
:104190008DF803708DF802806946A068FCF7EDFB8E
:1041A000A08981B2A068FCF73DFC6D1C032DE6D30D
:1041B0000020BDE8F88300000800002070B5054627
:1041C000154EB08D81B2B06AFCF72AFC0024B0898C
:1041D00081B2B068FCF724FC280605D5B08B81B20B
:1041E000B069FCF71FFC04E0B08B81B2B069FCF74A
:1041F00017FCB08981B2B068FCF714FC6806050EA4
:10420000641CE4B2082CE2D3B08D81B2B06ABDE880
:104210007040FCF707BC00000800002010B51446F1
:104220000B46024600F030F9200A00F073F9E0B2C4
:10423000BDE8104000F06EB92DE9F8430025104E9E
:1042400010274FF0030806EB051401216068FCF706
:10425000EDFBA089ADF800008DF803708DF80280A9
:104260006946A068FCF789FBA08981B2A068FCF7C9
:10427000D9FB6D1C032DE6D30020BDE8F8830000B8
:104280003800002010B5FFF7D7FF7E4CA08981B21F
:10429000A068FCF7C5FB6420FFF7CAFBA08981B2C8
:1042A000A068FCF7BFFB6420FFF7C2FBA08D81B2C2
:1042B000A06AFCF7B7FB7820FFF7BAFB112000F0EB
:1042C00015F97820FFF7B4FBB12000F00FF90520B5
:1042D00000F020F93C2000F01DF93C2000F01AF914
:1042E000B22000F003F9052000F014F93C2000F0A2
:1042F00011F93C2000F00EF9B32000F0F7F805208A
:1043000000F008F93C2000F005F93C2000F002F92B
:10431000052000F0FFF83C2000F0FCF83C2000F005
:10432000F9F8B42000F0E2F8032000F0F3F8C02020
:1043300000F0DCF8282000F0EDF8082000F0EAF8A2
:10434000042000F0E7F8C12000F0D0F8C02000F011
:10435000E1F8C22000F0CAF80D2000F0DBF80020E0
:1043600000F0D8F8C32000F0C1F88D2000F0D2F89A
:104370002A2000F0CFF8C42000F0B8F88D2000F01B
:10438000C9F8EE2000F0C6F8C42000F0AFF81A20FB
:1043900000F0C0F8362000F0A9F8C02000F0BAF80C
:1043A000E02000F0A3F8042000F0B4F8222000F090
:1043B000B1F8072000F0AEF80A2000F0ABF82E208C
:1043C00000F0A8F8302000F0A5F8252000F0A2F8B1
:1043D0002A2000F09FF8282000F09CF8262000F00A
:1043E00099F82E2000F096F83A2000F093F800207B
:1043F00000F090F8012000F08DF8032000F08AF81A
:10440000132000F087F8E12000F070F8042000F09D
:1044100081F8162000F07EF8062000F07BF80D20D1
:1044200000F078F82D2000F075F8262000F072F8E2
:10443000232000F06FF8272000F06CF8272000F010
:1044400069F8252000F066F82D2000F063F83B2085
:1044500000F060F8002000F05DF8012000F05AF84C
:10446000042000F057F8132000F054F83A2000F030
:104470003DF8052000F04EF8292000F037F8002024
:1044800010BD0000380000202DE9F04107460D4620
:1044900014461E462A2000F029F8BF1CC7F3072047
:1044A00000F038F8F8B200F035F8A41CC4F3072087
:1044B00000F030F8E0B200F02DF82B2000F016F8F4
:1044C0006D1CC5F3072000F025F8E8B200F022F8D3
:1044D000761CC6F3072000F01DF8F0B200F01AF8C1
:1044E000BDE8F0412C2000F001B8000070B5054691
:1044F000074CA08B81B2A069FCF792FA2846FFF71F
:104500005DFEA08B81B2A069BDE87040FCF78ABA5D
:1045100038000020FFF752BE08B5029C0094FCF75B
:1045200055FC10B5024601E0521C491C14781CB120
:104530000B780BB19C42F7D0101A10BD08B5074894
:10454000054901600021416000900223A0228021E2
:104550000020FFF7E1FF08BD4D210008000000200A
:1045600010B586B0012144F20400FCF75FFA4FF465
:104570000070ADF8140003208DF8160018208DF897
:104580001700154C05A92046FCF7F7F92115ADF8E1
:10459000141004218DF8171005A92046FCF7EDF939
:1045A0004FF4E13001900020ADF80800ADF80A00AA
:1045B000ADF80C00ADF810000C20ADF80E00074C63
:1045C00001A92046FCF77AFB01212046FCF762FB9B
:1045D00006B0002010BD0000000801400038014076
:1045E00010B518A0FEF766FF1A4C21881AA0FEF736
:1045F00061FF2088C00702D01DA0FEF75BFF208866
:10460000800702D51DA0FEF755FF2088400702D580
:104610001DA0FEF74FFF2088000702D51CA0FEF763
:1046200049FF2088C00502D51BA0FEF743FF208864
:10463000800502D51BA0FEF73DFFBDE8104004A099
:10464000FEF738BF7573616765206661756C743AF3
:104650000A0000002AED00E05343425F43465352F4
:104660005F554653523A30782530325820000000CA
:10467000554E444546494E5354522000494E5653D8
:104680005441544520000000494E5650432000003C
:104690004E4F435020000000554E414C49474E4577
:1046A0004420000044495642595A45524F200000C8
:1046B00010B5FFF765F8002010BD000090EA010F6B
:1046C00048BF81F0004100F1AE81421A3CBF801A20
:1046D00089184FEAD0524FF07F4C1CEA410FA2EBF1
:1046E000D15318BF9CEA026F00F03B804FF0004CA2
:1046F0004CEA00204CEA012121FA03FC10EB0C0CDF
:104700001ED202F1FF325FEA1C2040EBC25038BFDC
:1047100070471CF07F0F4FEA400C18BFBCF17F4F71
:1047200038BF7047C3F12003994008BF20F0010053
:10473000BCF17F4F38BF7047A0F1C04000F05CB9BA
:104740004FEA3C00000A40EBC25028BF1CF0FF0FAC
:104750004FEA400CE6D018BFBCF17F4F38BF70471E
:10476000EAE79CEA026F05D010EA5C0F08BF00F090
:104770000040704710B500F0F9F800BF64FBBE3E82
:104780004FF47F0C1CEAD0121EBF1CEAD11392EA30
:104790000C0F93EA0C0F00F0858090EA010F48BFE0
:1047A00042F4807240F4000C41F400002CF07F4190
:1047B00020F07F4000B58142A2EB03020FF2081CFB
:1047C000ACEB504EC0F100009EF800E04FEA4E0EF8
:1047D00000FB0EFC38BF49004FEA2C1C02F5FA0220
:1047E0000CFB0EF34FEACE1E4FEA112C4FEAC1210B
:1047F0000EEB635E42EB22420EFB0CFC4FEA1C53B5
:1048000000FB03114FEA112C4FEA01310EFB0CFCA7
:104810004FEADC4C00FB0C11C14228BF09184CEBDD
:1048200003335DF804EB10EB410143EBC250B2F5EA
:104830007C0F38BF704729D512F0F00F1CBF00F174
:10484000C04000F0004070470081828384858687E5
:1048500088898B8C8D8E8F919293959697999A9C3F
:104860009D9FA0A2A3A5A7A8AAACAEB0B2B3B5B7AE
:10487000B9BCBEC0C2C5C7C9CCCED1D4D7D9DCDF84
:10488000E2E6E9ECF0F3F7FAFE0000004FEA400C34
:104890000CF1807CBCF17E4F28BF7047B0F1C04066
:1048A00000F0AAB890EA010F0CEAD11348BF42F415
:1048B0008072624538BF634507D213F47F0F16D06C
:1048C00080EA010000F00040704710B500F04EF89B
:1048D000097EFC3E00F005B880EA010000F00040CF
:1048E000704780EA010000F0004000F085B812F443
:1048F0007F0F04BF0248704780EA010000F07CB8D7
:104900000000C07F41000B0ED3F19E0208D950F485
:1049100000034FEA032323FA02F048BF40427047E6
:1049200010B500F023F800BF4992248000207047A2
:104930006FF0004282EA20007047000010F0004152
:1049400048BF4042B0FA80F310FA03F2C3F19D036E
:104950000BD051EAC35101EB1220530638BF704708
:1049600000F1010008BF20F0010070470EF1020EB7
:104970002EF0030E5EF8044B244204D44FEA4102A9
:10498000B2F17F4F11D84FEA4003B3F17F4F0CD8FB
:104990000ED14FEAD07CB2F17F4F0CEB4C0C0CF1F6
:1049A000020C08BF4CEBD17C04E04FF0080C01E096
:1049B0004FEAD17C0CEB4C0324FA03F404F0070417
:1049C000B4F1040C06D20EEB840CBDE810404CF0A0
:1049D000010C6047DFE80CF0070802024FF00040CE
:1049E000A0F5800010BD0846420018BFD2F18072C9
:1049F00088BF00F0004010BDFF2141EAD050C00543
:104A0000704780F0004090EA010F7FF55EAE81F0C4
:104A1000004100F008B8000090EA010F48BF81F0A3
:104A200000413FF552AE421A04D882F00042A0EB9A
:104A3000020011444FEAD0524FF07F4C1CEA410F64
:104A4000A2EBD15318BF9CEA026F4AD04FF0004C42
:104A50004CEA00204CEA012121FA03FCB0EB0C0CDB
:104A60000FD412F0FE0F36D05FEA4C001DD50012B5
:104A700040EBC25038BF70471CF03F0F18BF704763
:104A80000BE0A2F101025FEA1C2040EBC25038BFEC
:104A900070471CF07F0F18BF7047C3F12003994087
:104AA00014BF401E20F00100704780084FEA122317
:104AB00008BF7047B0FA80FCA2EB0C02CCF1280CC6
:104AC00060FA0CF093EA122F04BF00EBC25070475B
:104AD0004FEAC3707047130A5FEADC1008BF7047E3
:104AE000F6E79CEA026F04D010EA5C0F08BF0020D2
:104AF000704710B5FFF73AFF40DFF63E81F0004007
:104B000070470000010002000100030001000200E4
:104B10000100040001000200010003000100020086
:104B20000100050001000200010003000100020075
:104B30000100040001000200010003000100020066
:104B40000100060001000200010003000100020054
:104B50000100040001000200010003000100020046
:104B60000100050001000200010003000100020035
:104B70000100040001000200010003000100020026
:104B80000100070001000200010003000100020013
:104B90000100040001000200010003000100020006
:104BA00001000500010002000100030001000200F5
:104BB00001000400010002000100030001000200E6
:104BC00001000600010002000100030001000200D4
:104BD00001000400010002000100030001000200C6
:104BE00001000500010002000100030001000200B5
:104BF00001000400010002000100030001000200A6
:104C0000010030313233343536373839616263640C
:104C100065660030313233343536373839414243F6
:104C20004445460068656C6C6F0076657273696F09
:104C30006E005F5F636D645F76657273696F6E00AF
:104C40006C6973745F746872656164005F5F636D43
:104C5000645F6C6973745F746872656164006C6929
:104C600073745F73656D005F5F636D645F6C697320
:104C7000745F73656D006C6973745F6576656E74DF
:104C8000005F5F636D645F6C6973745F6576656E0A
:104C900074006C6973745F6D75746578005F5F6331
:104CA0006D645F6C6973745F6D75746578006C69B1
:104CB00073745F6D61696C626F78005F5F636D64D0
:104CC0005F6C6973745F6D61696C626F78006C69A9
:104CD00073745F6D73677175657565005F5F636D94
:104CE000645F6C6973745F6D73677175657565007A
:104CF0006C6973745F74696D6572005F5F636D6486
:104D00005F6C6973745F74696D6572006C6973744C
:104D1000005F5F636D645F68656C70005F5F636D0B
:104D2000645F7073000000000000000000000000DD
:104D300000000000650E00080000000000000000F8
:104D40000000000000000000000000000000000063
:104D50000000000000000000000000000000000053
:104D6000000000000000000000000000D513000853
:104D7000AF160008770E00083F0F00080000000083
:104D80000000000000000000B10F0008000000005B
:104D90000000000000000000000000000000000013
:104DA0000000000000000000000000000000000003
:104DB00000000000000000000000000000000000F3
:104DC00000000000000000000000000000000000E3
:104DD00000000000000000000000000000000000D3
:104DE00000000000000000000000000000000000C3
:104DF00000000000D5130008AF1600085915000880
:104E00003B1600087569636F64655C4775694C699A
:104E100074652E68007569636F64655C4775694CDD
:104E20006974652E68007569636F64655C477569B0
:104E30004C6974652E68007569636F64655C4775BD
:104E4000694C6974652E6800252D2A2E73207072B6
:104E500069202073746174757320202020202073D2
:104E6000702020202020737461636B2073697A6541
:104E7000206D61782075736564206C65667420749C
:104E800069636B20206572726F720A00B14000087E
:104E9000A940000861450008A540000871410008CC
:104EA000854200086D210008691E0008AD40000819
:104EB000244C0008252200082A4C0008B1460008AE
:104EC000324C0008B1460008404C0008E1280008B8
:104ED0004C4C0008E12800085E4C0008C12700087F
:104EE000674C0008C1270008764C0008992200088A
:104EF000814C000899220008924C0008C92600083D
:104F00009D4C0008C9260008AE4C00085D2400082E
:104F1000BB4C00085D240008CE4C00089D2500080D
:104F2000DC4C00089D250008F04C0008A92A000868
:104F3000FB4C0008A92A00080C4D00084522000877
:104F4000114D0008392E00081C4D0008CD1D000829
:104F5000744F000800000020F80500002801000838
:104F6000A0510008F8050020E83A0000840100087C
:104F70003DC9FFFFC1420435080140012904691001
:104F8000320229046910DA10302908A930DA083011
:104F90002A20102B040617112D0102030404150604
:104FA0000708093BA24A2369183914691031229C69
:104FB0002A20045A80501AAC0C2904295032031AB2
:104FC000BC0C29045A246C1ACC0C29042920320563
:104FD0001ADC0C2904323032061AEC0C2904323463
:104FE000320A1AFC0C2904025B2C13CC17732051D3
:104FF0001A0202124152261394197320579A451827
:10500000133C147320459A88181318187320529A69
:10501000CB181AB01872548B0E0118132C1A732067
:10502000599A51181AFC3072559A9418136C1573CA
:1050300020499AD7181A34C0724F8B1A02181A8056
:105040001872509A5D18130C1373204112227A2A99
:10505000181A647872539A65181AF03072449AA834
:10506000181388147320469AEB181AD41872478BB9
:105070002E01181A20C072489A71181AB818724A6C
:105080009AB41813041673204B9AF7181A50187212
:105090004C8B3A021813101B732014120212525A2E
:1050A000611813781A7B205AD87A523013E0197B92
:1050B0002058D889181AA4F07A43D889181A483089
:1050C0007A56D889181A58307A42D889181AE8A816
:1050D0007A4ED889181A9C187A4DD889181AF4C0B3
:1050E0007A7FD812525A621813401C7B201BD812A8
:1050F0007A5A84181A8C1872901A881869F01A5CF7
:10510000487A20C0127A5AC71813C41A7B202E90EE
:10511000127A5A64181AA830720A8B1A026001189F
:105120001360107B2031907A02C01AAC1872329A48
:1051300045181AF8187A33A889181344117B2034BB
:10514000487A2A181A90187A354889181ADC187A79
:10515000364889181328127B2037487A52181A7457
:10516000187A384889181AC0187A394889181340AB
:105170001C7B201B487A7A181A14C07A3048891888
:1051800013C41A7B202E48891813F41B73207F3A0E
:10519000CBF0524E1AA8187A0A1829784918011823
:04000005080000ED02
:00000001FF
